{
  "_format": "hh-sol-artifact-1",
  "contractName": "WavePortal",
  "sourceName": "contracts/WavePortal.sol",
  "abi": [
    {
      "inputs": [],
      "stateMutability": "nonpayable",
      "type": "constructor"
    },
    {
      "inputs": [],
      "name": "getTotalWaves",
      "outputs": [
        {
          "internalType": "uint256",
          "name": "",
          "type": "uint256"
        }
      ],
      "stateMutability": "view",
      "type": "function"
    },
    {
      "inputs": [
        {
          "internalType": "address",
          "name": "_address",
          "type": "address"
        }
      ],
      "name": "getWavesByUser",
      "outputs": [
        {
          "internalType": "uint256",
          "name": "",
          "type": "uint256"
        }
      ],
      "stateMutability": "view",
      "type": "function"
    },
    {
      "inputs": [],
      "name": "wave",
      "outputs": [],
      "stateMutability": "nonpayable",
      "type": "function"
    }
  ],
  "bytecode": "0x608060405234801561001057600080fd5b5061003c60405180606001604052806027815260200161095e6027913961004160201b6102bb1760201c565b6101c4565b6100dd816040516024016100559190610142565b6040516020818303038152906040527f41304fac000000000000000000000000000000000000000000000000000000007bffffffffffffffffffffffffffffffffffffffffffffffffffffffff19166020820180517bffffffffffffffffffffffffffffffffffffffffffffffffffffffff83818316178352505050506100e060201b60201c565b50565b60008151905060006a636f6e736f6c652e6c6f679050602083016000808483855afa5050505050565b600061011482610164565b61011e818561016f565b935061012e818560208601610180565b610137816101b3565b840191505092915050565b6000602082019050818103600083015261015c8184610109565b905092915050565b600081519050919050565b600082825260208201905092915050565b60005b8381101561019e578082015181840152602081019050610183565b838111156101ad576000848401525b50505050565b6000601f19601f8301169050919050565b61078b806101d36000396000f3fe608060405234801561001057600080fd5b50600436106100415760003560e01c80636fe15b44146100465780639a2cdc0814610050578063c6b571d31461006e575b600080fd5b61004e61009e565b005b6100586101c5565b60405161006591906105dd565b60405180910390f35b610088600480360381019061008391906104cd565b610210565b60405161009591906105dd565b60405180910390f35b60016000808282546100b09190610614565b9250508190555060018060003373ffffffffffffffffffffffffffffffffffffffff1673ffffffffffffffffffffffffffffffffffffffff168152602001908152602001600020546101029190610614565b600160003373ffffffffffffffffffffffffffffffffffffffff1673ffffffffffffffffffffffffffffffffffffffff168152602001908152602001600020819055506101c36040518060400160405280600d81526020017f2564206861732077617665642100000000000000000000000000000000000000815250600160003373ffffffffffffffffffffffffffffffffffffffff1673ffffffffffffffffffffffffffffffffffffffff16815260200190815260200160002054610354565b565b60006102086040518060400160405280601781526020017f5765206861766520256420746f74616c20776176657321000000000000000000815250600054610354565b600054905090565b600061027460405180606001604052806025815260200161073160259139600160008573ffffffffffffffffffffffffffffffffffffffff1673ffffffffffffffffffffffffffffffffffffffff16815260200190815260200160002054846103f0565b600160008373ffffffffffffffffffffffffffffffffffffffff1673ffffffffffffffffffffffffffffffffffffffff168152602001908152602001600020549050919050565b610351816040516024016102cf919061054d565b6040516020818303038152906040527f41304fac000000000000000000000000000000000000000000000000000000007bffffffffffffffffffffffffffffffffffffffffffffffffffffffff19166020820180517bffffffffffffffffffffffffffffffffffffffffffffffffffffffff838183161783525050505061048f565b50565b6103ec828260405160240161036a92919061056f565b6040516020818303038152906040527f9710a9d0000000000000000000000000000000000000000000000000000000007bffffffffffffffffffffffffffffffffffffffffffffffffffffffff19166020820180517bffffffffffffffffffffffffffffffffffffffffffffffffffffffff838183161783525050505061048f565b5050565b61048a8383836040516024016104089392919061059f565b6040516020818303038152906040527fe3849f79000000000000000000000000000000000000000000000000000000007bffffffffffffffffffffffffffffffffffffffffffffffffffffffff19166020820180517bffffffffffffffffffffffffffffffffffffffffffffffffffffffff838183161783525050505061048f565b505050565b60008151905060006a636f6e736f6c652e6c6f679050602083016000808483855afa5050505050565b6000813590506104c781610719565b92915050565b6000602082840312156104df57600080fd5b60006104ed848285016104b8565b91505092915050565b6104ff8161066a565b82525050565b6000610510826105f8565b61051a8185610603565b935061052a8185602086016106a6565b61053381610708565b840191505092915050565b6105478161069c565b82525050565b600060208201905081810360008301526105678184610505565b905092915050565b600060408201905081810360008301526105898185610505565b9050610598602083018461053e565b9392505050565b600060608201905081810360008301526105b98186610505565b90506105c8602083018561053e565b6105d560408301846104f6565b949350505050565b60006020820190506105f2600083018461053e565b92915050565b600081519050919050565b600082825260208201905092915050565b600061061f8261069c565b915061062a8361069c565b9250827fffffffffffffffffffffffffffffffffffffffffffffffffffffffffffffffff0382111561065f5761065e6106d9565b5b828201905092915050565b60006106758261067c565b9050919050565b600073ffffffffffffffffffffffffffffffffffffffff82169050919050565b6000819050919050565b60005b838110156106c45780820151818401526020810190506106a9565b838111156106d3576000848401525b50505050565b7f4e487b7100000000000000000000000000000000000000000000000000000000600052601160045260246000fd5b6000601f19601f8301169050919050565b6107228161066a565b811461072d57600080fd5b5056fe5765206861766520256420746f74616c20776176657320666f7220757365723a2025732021a2646970667358221220fedcf6fa3e47c46007bffa97ea771aeccc6eaae47f927cd23251add401e1e56764736f6c63430008040033486920477579732c204920616d206120636f6e747261637420616e64204920616d20736d617274",
  "linkReferences": {},
  "deployedLinkReferences": {}
}